:03000000020100FA
:1001000075305B7B3F7A00D2967830EBF27838120C
:10011000811C120123F2C29674641281100ABA067D
:10012000E680E2B40003743F22B40103740622B4F3
:100130000203745B22B40303744F22B40403746695
:1001400022B40503746D22B40603747D22B4070340
:10015000740722B40803747F22B40903746F22B4B5
:100160000A03747722B40B03747C22B40C03743931
:1001700022B40D03745E22B40E03747922747122CA
:00000001FF
